:100000000C94BF000C94E7000C94E7000C94E700FC
:100010000C94E7000C94E7000C94E7000C94E700C4
:100020000C94E7000C94E7000C94D7040C9446055C
:100030000C94E7000C94E7000C94E7000C94E700A4
:100040000C94E7000C94E7000C94E7000C94E70094
:100050000C94E7000C94E7000C94E7000C948D04DA
:100060000C94E7000C94E7000C94E7000C94E70074
:100070000C94E7000C94E7000C94E7000C94E70064
:100080000C94E7000C94E7000C94E7000C94E70054
:100090000C94E7000C94E7000C94E7000C94E70044
:1000A0000C94E7000C94E7000C94E700080B0002A6
:1000B0000202000009040000010202000005240001
:1000C0001001052401010104240206052406000193
:1000D0000705810310004009040100020A00000026
:1000E00007050202400000070583024000000403E8
:1000F000090412010002EF02014041233680000191
:100100000102030141726475696E6F204C4C43001B
:1001100041726475696E6F204C656F6E6172646FB9
:100120000000000000250028002B002E00310000F8
:10013000000000240027002A002D003000040404E1
:10014000040403040502020202040302020202067E
:10015000060606060604040202020404040802015C
:100160001040804010204080408008020401804000
:100170002010020110801020404020003809112476
:100180001FBECFEFDAE0DEBFCDBF2AE0A6EDB9E0BB
:1001900001C01D92A934B207E1F719E0A0E0B1E077
:1001A000E6E2F7E102C005900D92A63DB107D9F74E
:1001B00010E0CFEBD0E004C02197FE010E9490092F
:1001C000CE3BD107C9F70E9478070C94910B0C9491
:1001D0000000FC018091F009882311F13FB7F894E9
:1001E00082E08093E9002091F200822F90E01816BF
:1001F000190614F481E090E0882339F0289844E649
:100200004093EF094091F1004083222339F020917F
:10021000F200211103C02BE62093E8003FBF0895B0
:100220008FEF9FEF08952FB7F89483E08093E90054
:100230009091E800892F807295FF04C09091F200A0
:1002400080E4891B2FBF08958091E70981110DC0BB
:1002500082E08093E30984E08093E4091092E60948
:100260001092E50981E08093E70983EE99E0089513
:100270003FB7F8948091DF099091E009A091E109DE
:10028000B091E20926B5A89B05C02F3F19F0019651
:10029000A11DB11D3FBFBA2FA92F982F8827BC01E0
:1002A000CD01620F711D811D911D42E0660F771F08
:1002B000881F991F4A95D1F708958F929F92AF9208
:1002C000BF92CF92DF92EF92FF924B015C010E94AE
:1002D00038016B017C010E9438016C197D098E097F
:1002E0009F09683E734081059105A8F321E0821AB9
:1002F0009108A108B10888EEC80E83E0D81EE11C61
:10030000F11C81149104A104B10429F7FF90EF902E
:10031000DF90CF90BF90AF909F908F9008954091C5
:10032000D8095091D9092091D6093091D70942179F
:100330005307B4F49091E8009570E1F39091E800D0
:1003400092FD19C08093F1008091D8099091D9094C
:1003500001968F739927892B19F48EEF8093E8000B
:100360008091D8099091D90901969093D9098093E9
:10037000D80981E0089580E00895EF92FF920F93ED
:100380001F93CF93DF93F82E192FE62E042F81E0D1
:10039000860F880F0E948F0183E00E948F01CF2D6E
:1003A000D12FEC0EFD2EF11CCE15DF05B9F007FFA5
:1003B00013C0FE0184910E948F01182F80E00E94DB
:1003C0008F01812321968111EFCFDF91CF911F9172
:1003D0000F91FF90EF9008958881EDCF81E0F5CFE8
:1003E000DF92EF92FF920F931F93CF93DF93D82E5C
:1003F0008A01EB017B01E40EF51ECE15DF0559F0F5
:10040000D7FE12C0FE0184910E948F0121968111B6
:10041000F4CF0FEF1FEFC801DF91CF911F910F9124
:10042000FF90EF90DF9008958881EECF0F931F9398
:10043000CF93DF931F92CDB7DEB782E0898342E48A
:1004400050E06CEA70E080E80E94F0010E94240114
:10045000DC0112960D911C910115110589F0D8014E
:10046000ED91FC910280F381E02DBE016F5F7F4F23
:10047000C801099597FD04C0F80100851185ECCFEE
:1004800089810F90DF91CF911F910F910895615055
:1004900030F02091F100FC0120830196F8CF2898DC
:1004A00084E68093EF0908958F929F92AF92BF9256
:1004B000CF92DF92EF92FF920F931F93CF93DF9330
:1004C0006C017B018A0180910B01882309F45CC0D7
:1004D0008091F009882309F457C08091DC0980FFDE
:1004E00005C08091E00082608093E000E801B12CBB
:1004F0008AEFA82E93E0892E2AE3922E209711F4FA
:10050000BB20D9F10E94130181110AC0AA94AA202C
:10051000D9F161E070E080E090E00E945D01EECFF3
:100520008C171D0611F00CF08C2F9FB7F894809259
:10053000E9002091E80025FD02C09FBFDFCF282FF2
:1005400030E0C21BD30BF701815020F04191409362
:10055000F100FACFE20EF31EBB2021F09092E800EA
:10056000B12CEBCF8091E80085FDE7CF9092E800B9
:10057000BB24B394209709F3F3CF5D9884E680936E
:10058000DB09101611063CF081E090E0F601938340
:10059000828310E000E0C801DF91CF911F910F919D
:1005A000FF90EF90DF90CF90BF90AF909F908F9093
:1005B0000895CF93DF931F92CDB7DEB76983DC0137
:1005C000ED91FC910280F381E02D41E050E0BE010D
:1005D0006F5F7F4F09950F90DF91CF91089583E072
:1005E0008093E9008091F200882319F08AE38093D8
:1005F000E80008950E94130190E00895CF93DF93DF
:100600001F92CDB7DEB7FC018485958597FD08C0A4
:100610002FEF3FEF358724870F90DF91CF9108951B
:10062000CE0101960E94E900019719F4898190E0BA
:10063000F3CF8FEF9FEFF0CF2FB7F8948091F109B0
:100640009091F209A091F309B091F4092FBF809322
:10065000FD099093FE09A093FF09B093000A85EF6E
:1006600099E00E94FE0297FF26C02FB7F894809170
:10067000F1099091F209A091F309B091F4092FBF0B
:100680004091FD095091FE096091FF097091000AA7
:10069000841B950BA60BB70B4091F9095091FA09F1
:1006A0006091FB097091FC0984179507A607B707AD
:1006B000B0F28FEF9FEF08950F931F93CF93DF93C7
:1006C0001F92CDB7DEB78C01FC018485958597FF1D
:1006D0000BC0CE0101960E94E900019771F4898157
:1006E00090E0F80195878487F801848595850F90BF
:1006F000DF91CF911F910F9108958FEF9FEFF1CF71
:10070000FC018485958597FD0BC09FB7F89482E026
:100710008093E9008091F2009FBF90E001960895D8
:100720009FB7F89482E08093E9008091F2009FBF28
:1007300090E00895FC0101900020E9F73197AF01A6
:10074000481B590BBC0185EF99E00C945402CF93E0
:10075000DF93D0E0C0E0009719F00E949A03EC010B
:100760008BE991E00E949A038C0F9D1FDF91CF913E
:1007700008958EE991E00E949A030FB6F894A89527
:1007800080916000886180936000109260000FBECD
:1007900088E198E00FB6F894A895809360000FBEAA
:1007A00090936000FFCF8EED91E00E94A703C5E01B
:1007B000D0E068EE73E080E090E00E945D01219758
:1007C000C1F70E94B903EF92FF920F931F93CF934B
:1007D000DF93CDB7DEB728970FB6F894DEBF0FBE14
:1007E000CDBF88E0E2E1F1E0DE01119601900D92CB
:1007F0008A95E1F78DED91E00E94A7038E010F5FCE
:100800001F4F7E0189E0E80EF11CF8018191919162
:100810008F010E94A7030E151F05B9F78BE292E026
:1008200028960FB6F894DEBF0FBECDBFDF91CF91F3
:100830001F910F91FF90EF900C949A03EF92FF920B
:100840000F931F93CF93DF93CDB7DEB72A970FB6E1
:10085000F894DEBF0FBECDBF8AE0EAE1F1E0DE0131
:10086000119601900D928A95E1F78DED91E00E942D
:10087000A7038E010F5F1F4F7E018BE0E80EF11C76
:10088000F801819191918F010E94A7030E151F0518
:10089000B9F78BE292E02A960FB6F894DEBF0FBE4E
:1008A000CDBFDF91CF911F910F91FF90EF900C94EE
:1008B0009A038DED91E00E94A7038FE992E00E94D8
:1008C000A7038BE292E00C949A030F931F93CF93AC
:1008D000DF93EC0188819981009759F02A813B814F
:1008E0002617370730F081E0DF91CF911F910F91EC
:1008F00008958B016F5F7F4F0E94BB0A009759F0EC
:10090000998388831B830A832C813D81232B59F78C
:10091000FC011082E8CF80E0E7CF1F920F920FB664
:100920000F9211242F933F938F939F93AF93BF9375
:100930008091F1099091F209A091F309B091F40925
:100940003091DE0923E0230F2D3758F50196A11DC4
:10095000B11D2093DE098093F1099093F209A093D1
:10096000F309B093F4098091DF099091E009A09117
:10097000E109B091E2090196A11DB11D8093DF0943
:100980009093E009A093E109B093E209BF91AF9180
:100990009F918F913F912F910F900FBE0F901F90BD
:1009A000189526E8230F0296A11DB11DD2CF1F92E4
:1009B0000F920FB60F9211248F939F938091E100B5
:1009C0009091E100937F9093E10083FF0FC010921C
:1009D000E90091E09093EB001092EC0092E3909389
:1009E000ED001092F00998E09093F00082FF22C091
:1009F00093E09093E9009091F200992319F09AE323
:100A00009093E8009091DB09992341F09091DB09E4
:100A100091509093DB09911101C05D9A9091EF097B
:100A2000992341F09091EF0991509093EF09911122
:100A300001C0289A84FF18C08091E2008E7E8160F8
:100A40008093E2008091E1008F7E8093E1008091AD
:100A5000DC098E7E80618093DC099F918F910F90DD
:100A60000FBE0F901F90189580FFF7CF8091E20086
:100A70008E7E80618093E2008091E1008E7E809383
:100A8000E1008091DC098E7E8160E5CF1F920F929C
:100A90000FB60F921124CF92DF92EF92FF920F9335
:100AA0001F932F933F934F935F936F937F938F93F6
:100AB0009F93AF93BF93EF93FF93CF93DF93CDB704
:100AC000DEB76C97DEBFCDBF1092E9008091E800E1
:100AD00083FF25C068E0CE0145960E94470282EF61
:100AE0008093E8008D8987FF39C09091E80090FFDE
:100AF000FCCF982F907609F034C19E894F89588D8C
:100B00002F89F88C911131C0803861F58091DD0911
:100B10008093F1001092F1008EEF8093E8006C96C4
:100B20000FB6F894DEBF0FBECDBFDF91CF91FF911E
:100B3000EF91BF91AF919F918F917F916F915F9155
:100B40004F913F912F911F910F91FF90EF90DF9068
:100B5000CF900F900FBE0F901F9018959EEF90931F
:100B6000E800C7CF1092F100D5CF913059F4811130
:100B7000D3CF4130510581F68091DD098D7F80937F
:100B8000DD09CACF933049F48111C6CF41305105F8
:100B900019F68091DD098260F2CF953041F48091A1
:100BA000E80080FFFCCF20682093E300B5CF9630AB
:100BB00009F0A9C00B8D1C8D22E01092E900109263
:100BC000D9091092D809F2122EC01092D7091092AA
:100BD000D6090E9416021F8299E09983FA8291E059
:100BE0009E8390EA98879AEF99872091D80930914F
:100BF000D909275F3F4F3C832B838D831092E900F7
:100C00001092D9091092D8091093D7090093D609E8
:100C100049E050E0BE016F5F7F4F80E00E94F0012D
:100C20000E94160279CF1093D7090093D6090E942B
:100C30002401DC0112960D911C910115110509F496
:100C400051C1D801ED91FC910480F581E02DBE01E8
:100C50006B5E7F4FC8010995009709F03EC1F8010E
:100C600000851185EACFF3E0FF120EC08F8988233B
:100C700009F440C0823061F440E860E180E191E035
:100C80000E94BD01811148CF81E28093EB0047CFE4
:100C9000813029F440E86BE084E091E0F1CF8330CB
:100CA00099F70E942401DC011296ED90FC908E01D0
:100CB0000F5F1F4F6801E114F10479F0D701ED9146
:100CC000FC910680F781E02DB801C7010995080F56
:100CD000111DF701E084F184EECFD8011C92F601DA
:100CE00001900020E9F73197BF016C197D0940E0C0
:100CF000C601C6CF6EEE70E0FB01449150E080E883
:100D00000E94F00109CF973009F4BECF983021F44A
:100D100081E08093F10000CF993009F0FDCE83701F
:100D200009F0B2CFE7E3F1E081E031E096E3219111
:100D3000222371F08093E9003093EB00DF011197DB
:100D40002C912093EC009093ED008F5F873079F722
:100D50008EE78093EA001092EA008F898093F00971
:100D6000DBCE8B8D9C8D1092E9001092D9091092E8
:100D7000D8099093D7098093D609898D811192C0A3
:100D80008E899D89913A49F4813209F07DCF47E0FF
:100D900050E064E071E080E0B3CF913209F074CFAD
:100DA000833269F48F89988DB0E0A0E080930001D0
:100DB00090930101A0930201B0930301ADCE803264
:100DC00069F48091E80082FFFCCF67E084E091E065
:100DD0000E9447028BEF8093E8009ECE823209F09A
:100DE0009BCE8F8980930B01EEEFFFE78591949165
:100DF0008B3F9C4D51F1E0E0F8E08091040190912F
:100E00000501A0910601B0910701803B9440A10526
:100E1000B105F1F480910B0180FD1AC0EE3F8AE02C
:100E2000F80789F587E797E79183808380916000D1
:100E30008093DA0988E19BE00FB6F894A895809337
:100E400060000FBE9093600067CEEEEFFAE0D5CF62
:100E5000808191818737974709F05ECEA895809170
:100E600060008861809360008091DA09809360005F
:100E7000EE3F2AE0F20789F08091FE0A9091FF0A86
:100E80009183808349CE808191818737980751F281
:100E90009093FF0A8093FE0AC5CF1092FF0A10922A
:100EA000FE0A3ACE0E942401DC0112960D911C919B
:100EB0000115110509F4E8CED801ED91FC910190DE
:100EC000F081E02DBE016B5E7F4FC8010995811155
:100ED00023CEF80100851185EBCF181619060CF406
:100EE0001BCED2CEF1E0FF12BECE62EF70E004CF97
:100EF000CF93DF93CDB7DEB728970FB6F894DEBF58
:100F00000FBECDBF789484B5826084BD84B5816006
:100F100084BD85B5826085BD85B5816085BD8091C4
:100F20006E00816080936E0010928100809181003C
:100F30008260809381008091810081608093810034
:100F40008091800081608093800080919100826018
:100F500080939100809191008160809391008091B5
:100F600090008160809390008091C10084608093A4
:100F7000C1008091C10082608093C1008091C10056
:100F800081608093C1008091C30081608093C30021
:100F90008091C00082608093C0008091C200816017
:100FA0008093C20080917A00846080937A0080915F
:100FB0007A00826080937A0080917A0081608093C9
:100FC0007A0080917A00806880937A001092F0090C
:100FD0001092DD091092DC098091D7008160809326
:100FE000D70080EA8093D80089B5806189BD89B532
:100FF000826089BD09B400FEFDCF61E070E080E051
:1010000090E00E945D018091D8008F7C8061809388
:10101000D8008091E000807F8093E0008091E10023
:101020008E7E8093E1008DE08093E200559A209AB5
:101030008FEF9FEF9093020A8093010AE9E6F1E0B7
:101040002491EAE4F1E08491882399F090E0880FFC
:10105000991FFC01E15DFE4FA591B491FC01EF5D8C
:10106000FE4F859194918FB7F894EC91E22BEC931D
:101070008FBF0DE311E0F801819191918F010E94E2
:10108000A70364EF71E080E090E00E945D01F1E071
:1010900007381F0781F78DED91E00E94A7038BE2CF
:1010A00092E00E949A0320E0A22E20E0B22E85EF6B
:1010B00099E00E948003181619060CF0D4C01A8219
:1010C00019821C821B821E821D8270E060E0CE01AC
:1010D00001960E94650429813A8181112EC0211553
:1010E000310519F0C9010E94320A1A8219821E8242
:1010F0001D821C821B820E941C030D811E8197FD94
:1011000024C08A30910509F18F8318860F5F1F4F25
:10111000B801CE0101960E946504882361F32981FC
:101120003A818D819E81BE01695F7F4F820F931F3F
:101130000E948A0B1E830D83DECF1E821D826DED01
:1011400071E0C9010E948A0BD6CFC980DA80C11430
:10115000D10421F076010115110561F58D809E8085
:10116000C980DA8097E8E92E91E0F92E10E000E0DE
:10117000F701608171818114910409F051C06115FA
:10118000710509F458C0FB018081882309F453C01C
:101190000F5F1F4FF4E0EF0EF11C0530110541F712
:1011A00084EA92E00E94A7038BE292E00E949A03F5
:1011B0004DC0740147018FEF881A980AF7018081AA
:1011C000082E000C990B0E944D09892B91F70150B4
:1011D00011090C0D1D1DF8018081082E000C990BC2
:1011E0000E944D09892B31F00E151F0518F0015092
:1011F0001109F1CFA8014F5F5F4F4E195F095E8360
:101200004D83CE14DF0420F4B701C6010E94780B91
:10121000E981FA818D819E81E80FF91F10829ECFAE
:101220006115710511F4F601AFCFC6010E94810B63
:10123000892B09F0ADCF000F111F000F111FF8010E
:10124000E957FE4F0280F381E02D099589819A814B
:10125000009711F00E94320AA114B10409F427CFBB
:101260000E94000024CF8DED91E00E949A03F4CFFC
:10127000E5EFF9E01382128288EE93E0A0E0B0E09F
:1012800084839583A683B78388E291E091838083EA
:101290008FEF9FEF95878487089591110C945609DD
:1012A000803219F089508550C8F70895992788270A
:1012B00008952F923F924F925F926F927F928F92FA
:1012C0009F92AF92BF92CF92DF92EF92FF920F93D5
:1012D0001F93CF93DF93CDB7DEB7CA1BDB0B0FB6DF
:1012E000F894DEBF0FBECDBF09942A88398848889C
:1012F0005F846E847D848C849B84AA84B984C88432
:10130000DF80EE80FD800C811B81AA81B981CE0F28
:10131000D11D0FB6F894DEBF0FBECDBFED0108950D
:10132000EE0FFF1F0590F491E02D09940F931F938A
:10133000CF93DF938230910510F482E090E0E0914A
:10134000470AF091480A30E020E0B0E0A0E0309792
:1013500099F42115310509F44AC0281B390B2430B2
:101360003105D8F58A819B816115710589F1FB01F1
:1013700093838283FE0111C04081518102811381D8
:1013800048175907E0F04817590799F4109761F08A
:1013900012960C93129713961C933296CF01DF91FD
:1013A000CF911F910F9108950093470A1093480A17
:1013B000F4CF2115310551F04217530738F0A90138
:1013C000DB019A01BD01DF01F801C1CFEF01F9CFC7
:1013D0009093480A8093470ACDCFFE01E20FF31F96
:1013E000819391932250310939832883D7CF20915B
:1013F000450A3091460A232B41F420910E01309189
:101400000F013093460A2093450A20910C01309138
:101410000D012115310541F42DB73EB74091100162
:1014200050911101241B350BE091450AF091460AB9
:10143000E217F307A0F42E1B3F0B2817390778F0AB
:10144000AC014E5F5F4F2417350748F04E0F5F1F0A
:101450005093460A4093450A819391939FCFF0E0C1
:10146000E0E09CCFCF93DF930097E9F0FC01329747
:1014700013821282A091470AB091480AED0130E030
:1014800020E01097A1F420813181820F931F2091D9
:10149000450A3091460A2817390709F061C0F093D0
:1014A000460AE093450ADF91CF910895EA01CE17ED
:1014B000DF07E8F54A815B819E0141155105B1F7CF
:1014C000E901FB83EA8349915991C40FD51FEC17B9
:1014D000FD0761F4808191810296840F951FE901D7
:1014E00099838883828193819B838A83F0E0E0E003
:1014F00012968D919C9113970097B9F52D913C917F
:101500001197CD010296820F931F2091450A3091C9
:10151000460A2817390739F6309751F51092480ACC
:101520001092470AB093460AA093450ABCCFD383D2
:10153000C28340815181840F951FC817D90761F478
:101540004E5F5F4F88819981480F591F51834083B7
:101550008A819B81938382832115310509F0B0CF65
:10156000F093480AE093470A9ECFFD01DC01C0CF0B
:1015700013821282D7CFB0E0A0E0E1ECFAE00C9445
:101580005B098C01009751F4CB010E9496098C01F4
:10159000C801CDB7DEB7E0E10C947709FC01E60F96
:1015A000F71F9C0122503109E217F30708F49DC090
:1015B000D901CD91DC911197C617D70798F0C530A6
:1015C000D10530F3CE0104978617970708F3C61BA1
:1015D000D70B2297C193D1936D937C93CF010E9437
:1015E000320AD6CF5B01AC1ABD0A4C018C0E9D1E8F
:1015F000A091470AB091480A512C412CF12CE12CC2
:10160000109731F58091450A9091460A8815990501
:1016100009F05CC04616570608F058C080910C01CE
:1016200090910D01009741F48DB79EB74091100144
:1016300050911101841B950BE817F90708F055C06C
:10164000F093460AE093450AF90171836083A0CFC5
:101650008D919C91119712966C90129713967C9095
:101660001397A815B90559F56C0142E0C40ED11CB9
:10167000CA14DB0420F1AC014A195B09DA011296A5
:10168000159780F06282738251834083D9016D93F4
:101690007C93E114F10471F0D7011396FC93EE935F
:1016A000129776CF22968C0F9D1FF901918380832C
:1016B000F301EFCFF093480AE093470A69CF481649
:1016C000590608F42C017D01D3019ACFCB010E9469
:1016D00096097C01009749F0AE01B8010E94780B91
:1016E000C8010E94320A870153CF10E000E050CFBA
:1016F000FB01DC0102C001900D9241505040D8F72F
:101700000895FB01DC018D91019080190110D9F33E
:10171000990B0895FB01DC0101900D920020E1F787
:061720000895F894FFCFCC
:10172600FFFFFFFF00E10000000000000000490A83
:101736008000300235023C0242024902330658025A
:101746006E02880200000000D9025402FA02EF027B
:101756008003FE025C0300C18081000000D902FA0A
:10176600022A0351037E03A303E103040427046052
:10177600049404C504FF042C0554058805B305E745
:10178600051C0642066A069E06DA06020731075D52
:10179600079407BF07E507140845087208B508ED62
:1017A60008190951098C09350259043C021E0430F6
:1017B60002E303CB09D3034202B9030D0A000A0A66
:1017C6000A0A0A0A0A0A0A0A0A0A0A0A0A0A0A0A73
:1017D6000A0A0A0A0A0A0A0A0A0A0A0A0A0A0A0A63
:1017E6000A0A0A0A0A0A0A0A0A0A0A0A0A0A0A0A53
:1017F6000A0A0A0A0A0A0A0A0A0A0A0A0A000A4B0C
:1018060065726E656C2070616E6963202D206E6F47
:10181600742073796E63696E673A20466174616CF1
:1018260020657863657074696F6E20696E20696ED5
:10183600746572727570740A436F64653A2030304D
:101846002046462046412030460A0023212F20000C
:1018560068656C700077686F616D6900756E616DA3
:1018660065007265626F6F740053797374656D3AC3
:1018760020456D6253595300435055204672657199
:1018860075656E63793A203136204D487A00436F8C
:101896006D70696C6520446174653A204A616E20FA
:1018A6003137203230323500436F6D70696C6520F8
:1018B60054696D653A2030313A30333A313400524A
:1018C6006F6F7400556E6B6E6F776E20636F6D6D04
:1018D600616E642E2054797065202768656C7027C8
:1018E60020666F722061206C697374206F662063B6
:1018F6006F6D6D616E64732E005B202020302E307C
:1019060030303030305D20426F6F74696E67204131
:10191600726475696E6F2E2E2E005B202020302E8D
:101926003035303030305D20496E697469616C69DC
:101936007A696E672073797374656D20636F6D7055
:101946006F6E656E74732E2E2E005B202020302E57
:101956003130303030305D204350553A2041546D9F
:10196600656761333238502040203136204D487A41
:10197600005B202020302E3135303030305D204D58
:10198600656D6F72793A2032204B42205352414D99
:101996002C203332204B4220466C617368005B205A
:1019A6002020302E3230303030305D20492F4F200D
:1019B600506F7274733A20496E697469616C697A02
:1019C6006564005B202020302E3235303030305DAB
:1019D60020554152543A2053657269616C20636FF9
:1019E6006D6D756E69636174696F6E207374617273
:1019F6007465642061742039363030206261756404
:101A0600005B202020302E3330303030305D2049CE
:101A160032433A2042757320696E697469616C6954
:101A26007A6564005B202020302E3335303030302C
:101A36005D205350493A2042757320696E69746976
:101A4600616C697A6564005B202020302E3430306A
:101A56003030305D2054696D65723A20436F6E6692
:101A660069677572656420666F72206D696C6C6952
:101A760073282920616E642064656C6179282900C9
:101A86005B202020302E3435303030305D205761D9
:101A9600746368646F673A2044697361626C656455
:101AA600202864656661756C742073657474696E4C
:101AB600677329005B202020302E353030303030DF
:101AC6005D20416E616C6F672070696E733A2049C4
:101AD6006E697469616C697A656420616E642072EE
:101AE60065616479005B202020302E35353030303A
:101AF600305D2050574D3A2050756C7365205769FC
:101B0600647468204D6F64756C6174696F6E2063D0
:101B160068616E6E656C7320616374697665005BDF
:101B2600202020302E3630303030305D2045455074
:101B3600524F4D3A20526561642F57726974652081
:101B4600696E697469616C697A6564005B2020203E
:101B5600302E3635303030305D204C45443A204208
:101B66006C696E6B207465737420696E6974696143
:101B7600746564005B202020302E373030303030E2
:101B86005D2053656E736F72733A20496E6974698E
:101B9600616C697A65642028416E616C6F672F44B9
:101BA60069676974616C29005B202020302E373507
:101BB600303030305D2045787465726E616C204936
:101BC6006E74657272757074733A20456E61626CDC
:101BD6006564005B202020302E3830303030305D98
:101BE6002045787465726E616C206D656D6F7279D3
:101BF600206D6F64756C65733A204E6F7420646552
:101C0600746563746564005B202020302E3835309F
:101C16003030305D20436F6E666967757261746936
:101C26006F6E3A2044656661756C742073657474D2
:101C3600696E6773206C6F61646564005B202020A9
:101C4600302E3930303030305D204669726D776124
:101C560072652056657273696F6E3A20312E302E8A
:101C660030005B202020302E3935303030305D207A
:101C7600426F6F746C6F616465723A205665727359
:101C8600696F6E20322E302E30005B202020312EE0
:101C96003030303030305D20536574757020636F9E
:101CA6006D706C6574652E20456E746572696E671D
:101CB600207573657220636F64652E2E2E005B207F
:101CC6002020312E3035303030305D205B494E4695
:101CD6004F5D204D61696E206C6F6F70207374616B
:101CE600727465642E2057616974696E6720666F29
:101CF60072206576656E74732E005B202020312E6F
:101D06003130303030305D205B494E464F5D2053D8
:101D1600797374656D206F7065726174696F6E6139
:101D26006C005B202020312E3135303030305D2084
:101D36005B44454255475D204750494F3A2050691C
:101D46006E2031332073657420746F2048494748EC
:101D5600005B202020312E3230303030305D205B69
:101D660044454255475D20416E616C6F6720526560
:101D760061643A204130203D20353132005B20201D
:101D860020312E3235303030305D205B44454255AF
:101D9600475D2053656E736F7220446174613A200B
:101DA60054656D7065726174757265203D203235BB
:101DB600C2B043005B202020312E3330303030302B
:101DC6005D205B44454255475D2054696D65722030
:101DD6005374617475733A20416374697665005B68
:101DE600202020312E3335303030305D205B4445A5
:101DF6004255475D2050574D204F75747075743AA3
:101E060020313238005B202020312E343030303003
:101E1600305D205B44454255475D20454550524F55
:101E26004D205374617475733A204E6F206572723B
:101E36006F7273005B202020312E34353030303005
:101E46005D205B44454255475D2057617463686475
:101E56006F672054696D65723A204E6F7420616316
:101E660074697665005B202020312E3530303030A5
:101E7600305D205B494E464F5D2053797374656D26
:101E86002072756E6E696E67206E6F726D616C6C16
:101E960079005B202020312E3535303030305D2002
:101EA6005B494E464F5D2053797374656D2075709E
:101EB60074696D653A203020686F7572732C203115
:101EC600206D696E757465732C20333020736563DD
:101ED6006F6E6473005B202020312E363030303038
:101EE600305D205B44454255475D204578746572F8
:101EF6006E616C2044657669636520537461747500
:101F0600733A204E6F206572726F7273005B2020E9
:101F160020312E3635303030305D205B494E464F0D
:101F26005D204E6574776F726B3A204E6F74206336
:101F36006F6E6E6563746564005B202020312E37FA
:101F460030303030305D205B494E464F5D20506F5B
:101F560077657220537570706C793A20566F6C7481
:101F660061676520737461626C6520617420355603
:101F7600005B202020312E3735303030305D205B3D
:101F860044454255475D20426F6F742073657175F5
:101F9600656E636520636F6D706C65746564207330
:101FA60075636365737366756C6C79005B202020BE
:101FB600312E3830303030305D205B494E464F5D33
:101FC60020526561647920666F7220757365722090
:101FD600696E707574206F7220636F6D6D616E64CB
:101FE60020657865637574696F6E006B696C6C202B
:061FF60030786666000071
:00000001FF
